:100000000C946B000C9493000C9493000C9493004C
:100010000C9493000C9493000C9493000C94930014
:100020000C9493000C9493000C9493000C94930004
:100030000C9493000C9493000C9493000C949300F4
:100040000C94F50B0C9493000C94DF0A0C94B90AF1
:100050000C9493000C9493000C9493000C949300D4
:100060000C943F0C0C9493005573696E6720737465
:1000700061746963204D41432061646472657373E8
:100080003A200000000008000201000003040700FD
:100090000000000000000000000000250028002BE8
:1000A0000000000000240027002A000404040404C7
:1000B0000404040202020202020303030303030115
:1000C00002040810204080010204081020010204EC
:1000D00008102000971E11241FBECFEFD8E0DEBF0E
:1000E000CDBF13E0A0E0B1E0EEE3FBE402C0059079
:1000F0000D92AA3FB107D9F726E0AAEFB3E001C0FD
:100100001D92A33EB207E1F710E0CBE6D0E004C0B9
:100110002197FE010E94BC20CA36D107C9F70E9470
:10012000F4170C949D250C94000080E3FB01808360
:100130003296842F82958F7090E1899F4019112407
:100140004A3014F4405D01C0495C4293482F81114C
:10015000F0CF0895DC01ED91FC91048CF58DE02D3C
:100160000994EF92FF920F931F93CF93DF93EC01CB
:100170007B018A016FE072E087ED94E00E94F21744
:10018000BE0187ED94E00E94F21761E272E087ED14
:1001900094E00E94F217E7010E0D1F1DC017D10752
:1001A00031F0699187ED94E00E947917F7CF68EFFD
:1001B00072E087ED94E0DF91CF911F910F91FF9056
:1001C000EF900C9480172F923F924F925F926F9214
:1001D0007F928F929F92AF92BF92CF92DF92EF92D7
:1001E000FF920F931F93CF93DF93CDB7DEB7659741
:1001F0000FB6F894DEBF0FBECDBF7C016B014A0184
:10020000FB01DB018D918111FDCF20E030E080E02A
:1002100090E05AE041914423F9F0843091054CF587
:100220004E3269F42F3F310509F01CF5D401A80FB7
:10023000B91F12962C93019620E030E0EBCF529F2D
:10024000B001539F700D1124242F440F330B205302
:100250003109260F371FDECF2F3F310509F04CF44F
:100260008430910534F4F401E80FF91F228381E012
:1002700021C0F70142815381648175818091CD0550
:100280009091CE05A091CF05B091D00548175907A0
:100290006A077B0709F428C10E94A10B8701085F48
:1002A0001F4F6F7077277C5FC8010E9487158130D0
:1002B00019F080E090E0F0C187E092E09A838983B2
:1002C000F70182819381A481B5818B839C83AD8367
:1002D000BE8345E350E0BE016F5F7F4FC8010E94BF
:1002E0005D13892B19F4C12CD12CF9C00E94A10BEC
:1002F000F7017783668342E050E0B7016A5F7F4F82
:10030000C8010E94770A81E090E09A83898342E0E5
:1003100050E0BE016F5F7F4FC8010E94770A80E006
:1003200091E09A83898342E050E0BE016F5F7F4F86
:10033000C8010E94770A1A82198242E050E0BE0189
:100340006F5F7F4FC8010E94770A42E050E0BE0114
:100350006F5F7F4FC8010E94770A42E050E0BE0104
:100360006F5F7F4FC8010E94770A2601F2018081EA
:10037000882329F1C6015C01FC012081019621112D
:1003800016C0250135016C187D081614170494F465
:100390006D8641E050E0BE01635F7F4FC8010E945F
:1003A000770AA301B601C8010E94770A03C02E3262
:1003B00011F7E7CF6501FFEFCF1ADF0AD7CF1D8610
:1003C00041E050E0BE01635F7F4FC8010E94770AA1
:1003D000C12CDD24D394DA82C98242E050E0BE0110
:1003E0006F5F7F4FC8010E94770ADA82C98242E0BC
:1003F00050E0BE016F5F7F4FC8010E94770AC801BD
:100400000E94EC14892B09F46ECF83E0A82EB12C46
:100410003401F2E06F0E711C0E94A10B1B012C0134
:10042000C8010E94070F18161906A4F00E94A10B1C
:10043000DC01CB0182199309A409B50989389341DC
:10044000A105B105D0F462E370E080E090E00E9485
:10045000670BE6CFF7014281538164817581818DFD
:10046000928DA38DB48D481759076A077B0741F415
:10047000858D968DC59721F406C02FEF3FEF25C0DF
:100480002EEF3FEF22C0F70181A192A10C970CF44F
:1004900000C14CE050E0BE016F5F7F4FC8010E9479
:1004A000BF0E8B819C819827892798279A8B898BEF
:1004B000F7014681578129813A8142175307B9F0E4
:1004C000C8010E94EB092CEF3FEF6901F1E0AF1A80
:1004D000B10829F02FEFC216D20609F49DCFC8014A
:1004E0000E948114C601D8C08EEF9FEFD5C097FF40
:1004F000E7CF8F709270892B31F0C8010E94EB0911
:100500002BEF3FEFE2CFCF80D884DC24CD24DC2456
:10051000C114D10431F4C8010E94EB092AEF3FEF66
:10052000D4CF812C912C8D819E8198278927982763
:100530008816990640F541E050E0BE01635F7F4FA9
:10054000C8010E94BF0E8D85811113C08D85811158
:10055000F2CFC8010E94DE0EC8010E94DE0EC80163
:100560000E94DE0EC8010E94DE0EFFEF8F1A9F0A66
:10057000DACF8D859FEF980F9D87882339F3C801C7
:100580000E94DE0EF6CF812C912C41E050E0BE019E
:100590006D5E7F4FC8010E94BF0E8B89982F907CA3
:1005A00061F4882371F08B899FEF980F9B8B8823D0
:1005B00041F0C8010E94DE0EF6CFC8010E94DE0E97
:1005C0001B8A8B898111E1CF42E050E0BE01615F5F
:1005D0007F4FC8010E94BF0E42E050E0BE01635F42
:1005E0007F4FC8010E94BF0EC8010E94DE0EC801E5
:1005F0000E94DE0EC8010E94DE0EC8010E94DE0EBF
:1006000042E050E0BE016F5E7F4FC8010E94BF0E06
:100610008F85988981159140F1F42D853E8532278B
:100620002327322721303105B1F489899A89811530
:10063000944031F0C8010E94EB0927EF3FEF45CF0E
:1006400044E050E0B301C8012C8B3D8B0E94BF0EEB
:100650002C893D893ACF412C512C89899A89982738
:10066000892798274816590638F4C8010E94DE0EDB
:100670008FEF481A580AF1CFEFEF8E1A9E0A8C14AA
:100680009D0409F082CFC8010E94EB0926EF3FEFDD
:100690001CCF2DEF3FEF19CF65960FB6F894DEBF54
:1006A0000FBECDBFDF91CF911F910F91FF90EF90C3
:1006B000DF90CF90BF90AF909F908F907F906F9082
:1006C0005F904F903F902F9008952F923F924F92BE
:1006D0005F926F927F928F929F92AF92BF92DF92C2
:1006E000EF92FF920F931F93CF93DF93CDB7DEB7B7
:1006F000E4970FB6F894DEBF0FBECDBF7C011A01A0
:100700002B0139010E94A10B4B015C018701055BA4
:100710001F4FC8010E94070F18161906A4F00E9467
:10072000A10BDC01CB0188199909AA09BB0928167C
:1007300039064A065B06F0F062E370E080E090E084
:100740000E94670BE6CF42E250E0BE016F5F7F4F31
:10075000C8010E94BF0E8981823031F4F801858979
:1007600096898334910541F0D12CC8010E94EB0990
:100770008D2D93C18FEF91C16D817E818F81988581
:100780000E94B5204B015C01F30160837183828379
:10079000938346E050E0B701685F7F4FCE014D96EE
:1007A0000E94BE22892B99F4F70180819181A28158
:1007B000B38188169906AA06BB0648F08481958104
:1007C000A681B78188159905AA05BB0528F4C8013B
:1007D0000E94EB0980E061C189899A89AB89BC8953
:1007E000F70186879787A08BB18B8EECA82EB12C52
:1007F000C8010E94DE0EF1E0AF1AB108C9F7D12C92
:10080000C7014E964C01F701E45AFF4FFAA7E9A73A
:1008100040969CA78BA7F297FEA7EDA7089798ABE9
:100820008FA77097FAABE9AB1701F2E22F0E311CDC
:1008300040979CAB8BABF801818D928D18161906F1
:100840000CF093CFC8010E94DE0E8F30910509F4A1
:100850009BC074F58330910509F45FC06CF4009778
:1008600051F3019709F00DC1C8010E94DE0E44E06A
:1008700050E06BA97CA9B5C08630910509F469C028
:100880000C9709F0FEC0C8010E94DE0E5C01BB247B
:10089000C50101960E94C220F701958B848BA501AA
:1008A000BC01C8010E94AA00F7018489958980C013
:1008B0008633910509F481C07CF48333910509F4F2
:1008C000C6C0C59709F0DDC0C8010E94DE0EC80190
:1008D0000E94DE0ED82EAFCF8B33910509F4A1C054
:1008E0008F3F910509F4A7CFCA9709F0CAC0C80184
:1008F0000E94DE0E44E050E06DA57EA5C8010E9476
:10090000BF0EF70162A573A584A595A50E94B52029
:1009100062A773A784A795A78ECFC8010E94DE0E99
:100920005C0144E050E069A97AA9C8010E94BF0EA9
:10093000412C512CBB2494E0A91AB1084A145B0441
:100940000CF079CFC8010E94DE0EEFEF4E1A5E0A5E
:10095000F5CFC8010E94DE0E5C0144E050E0B10119
:10096000C8010E94BF0E412C512CBB24F4E0AF1AE9
:10097000B1084A145B040CF05ECFC8010E94DE0E81
:100980008FEF481A580AF5CFC8010E94DE0E5C01AD
:10099000BB24C50101960E94C220F701938B828B74
:1009A000A501BC01C8010E94AA00F70182899389B0
:1009B000FC01EA0DFB1D10823ECFC8010E94DE0E35
:1009C000B82EF701868D811110C0878D81110DC061
:1009D00080A181110AC081A1811107C044E050E0CB
:1009E000B401C8010E94BF0E26CFE9A5FAA5408038
:1009F000518062807380B401CE0183960E94A90A5F
:100A00008DA19EA1AFA1B8A584159505A605B70532
:100A100029F3BB2009F40FCFC8010E94DE0EBA945F
:100A2000F8CFC8010E94DE0E44E050E06BA57CA523
:100A3000C8010E94BF0EF70166A577A580A991A9FC
:100A40000E94B52066A777A780AB91ABF4CEC80112
:100A50000E94DE0E44E050E06FA578A9C8010E9414
:100A6000BF0EF70166A177A180A591A50E94B520D0
:100A700066A377A380A791A762AB73AB84AB95AB5A
:100A8000DACEC8010E94DE0EB82EBB2009F4D3CE08
:100A9000C8010E94DE0EBA94F8CFE4960FB6F8941F
:100AA000DEBF0FBECDBFDF91CF911F910F91FF90A1
:100AB000EF90DF90BF90AF909F908F907F906F905E
:100AC0005F904F903F902F9008957F928F929F92CA
:100AD000AF92BF92CF92DF92EF92FF920F931F934C
:100AE000CF93DF93CDB7DEB7A6970FB6F894DEBFEE
:100AF0000FBECDBF8C01762E942E852E20E2B22E15
:100B0000CE0101967C01FC012B2D11922A95E9F76B
:100B100087E092E09AA389A38FEF8BA38CA38DA388
:100B20008EA368018BE4C80ED11C43E450E0BE01E3
:100B30006F5D7F4FC6010E945D13019609F4BFC02F
:100B400081E089838A8386E0A82EAB821C82F8012B
:100B500064817581868197810E94B5206D837E8333
:100B60008F83988789869A8680E890E09C878B8718
:100B70004CE150E0B701C6010E94770AF7012B2D26
:100B800011922A95E9F7480188E0880E911CF4013A
:100B9000D70101900D92AA94E1F740E150E0B7012E
:100BA000C6010E94770AF7011192BA94E9F796E01C
:100BB000A92EB12C40E250E0B701C6010E94770A8D
:100BC000F1E0AF1AB108B1F783E6898392E89A831E
:100BD00093E59B838C8385E38D8381E08E837F8285
:100BE0009DE3988797E099878A8786E0F401DE0184
:100BF0001B9601900D928A95E1F78CE0898B8A8B88
:100C000064E272E0CE0143960E94E622F801438539
:100C1000BE01675E7F4FC8010E949500F8014485C0
:100C2000BE01655E7F4FC8010E949500F8014585B1
:100C3000BE01635E7F4FC8010E9495004EE150E007
:100C4000B701C6010E94770AF3E07F121EC082E35B
:100C5000898384E08A83F80196859B8397859C83AA
:100C600090899D8391899E8396E39F838887868D53
:100C70008987878D8A8780A18B8781A18C874CE0AB
:100C800050E0B701C6010E94770A87E3898386E0B6
:100C90008A8391E09B8393E09C838D838FE08E8396
:100CA0008AE38F838BE388878FEF898749E050E061
:100CB000B701C6010E94770AC6010E94EC14A696ED
:100CC0000FB6F894DEBF0FBECDBFDF91CF911F915D
:100CD0000F91FF90EF90DF90CF90BF90AF909F90DB
:100CE0008F907F9008952F923F924F925F926F92D4
:100CF0007F928F929F92AF92BF92CF92DF92EF92AC
:100D0000FF920F931F93CF93DF93CDB7DEB7E39797
:100D10000FB6F894DEBF0FBECDBF87E0C82E82E0CD
:100D2000D82E8E010F5F1F4F9EEFA92EBB24BA94C1
:100D30004E0128E0820E911C25EA222E24E0322E5C
:100D40000E94D20F8111BEC16BE272E087ED94E088
:100D50000E94F21782E796E00E94F011D9A6C8A679
:100D60001AA61BA61CA61DA6CE018A960E94B21624
:100D70006AA57BA58CA59DA51FA61EA619AA18AAC3
:100D80001BAA1AAA2AE0A8010E94E91FF8010190F3
:100D90000020E9F73197AF01401B510BB801CE019C
:100DA0008E960E9458171A8219821C821B821E82FC
:100DB0001D8245E150E06CE472E0C8010E945817C2
:100DC0008AA99BA94EA45FA4ED80FE804114510422
:100DD00009F474C10097A1F0E80EF91EB701C8012B
:100DE0000E941F17882309F469C129813A818D81E6
:100DF0009E81B201820F931F0E94E622FE82ED8245
:100E00001BA21AA21DA21CA21FA21EA269817A8186
:100E10006115710531F04D815E81CE0182960E948F
:100E2000581789819A810E9457218EA59FA50E94FB
:100E300057216EA17FA16F5F7F4FCE0182960E94E6
:100E4000E3100E94D20F8111CCC060916A067091AC
:100E50006B068091D5059091D60540916C06509116
:100E60006D06DC01ED91FC916115710521F00088A2
:100E7000F189E02D12C00684F785E02DDA82C9825F
:100E8000409066065090670660906806709069060C
:100E90004B825C826D827E82B8010995813091051A
:100EA00009F09AC09093580680935706E2E1F1E06A
:100EB000D80187E001900D928A95E1F7F801ACED39
:100EC000B5E081918D93E815F905D9F7B2E0B093BB
:100ED000E3051092E4058FE08093E505F1010190B0
:100EE0000020E9F7CF01855994408138910508F039
:100EF00067C04FE050E067ED75E085EA94E00E943E
:100F00000710AC014550510967ED75E080E10E9482
:100F100028100E94A10B6093590670935A06809383
:100F20005B0690935C0660935D0670935E0680930B
:100F30005F06909360068091D5059091D605DC01FF
:100F4000ED91FC910084F185E02D0995892BC1F488
:100F50000E94A10B40905D0650905E0660905F0677
:100F600070906006DC01CB0184199509A609B709C8
:100F700088399A43A105B105F0F28CEF9FEF1CC0B0
:100F8000CE0188960E9405110497D1F48091DA056C
:100F9000811111C00E94A10B60935D0670935E06E3
:100FA00080935F069093600610926106109271061E
:100FB0001092700616C090E09093710680937006B0
:100FC0008091D5059091D605DC01ED91FC910488C6
:100FD000F589E02D099518C0B0927106A0927006AF
:100FE00013C062E672E087ED94E00E94DE176EA106
:100FF0007FA16F5F7F4FCE0182960E94E3108CE647
:1010000092E00E94971055C063E772E087ED94E08C
:101010000E94F21740917006509171062A01550FF7
:101020006608770877FE0EC06DE287ED94E00E94B7
:10103000791744275527BA014419550966097709D4
:101040002AE003C02AE0B301A20187ED94E00E94E8
:10105000951780917006909171068F3FBFEF9B07A7
:1010600019F46FE772E015C08E3F2FEF920719F465
:101070006AE872E00EC08D3FAFEF9A0719F46AE993
:1010800072E007C0049619F465EA72E002C067EBEB
:1010900072E087ED94E00E94F21761ED72E087ED57
:1010A00094E00E94DE1768E873E180E090E00E941F
:1010B000670B8AA19BA10E94572142CEC8010E94C2
:1010C00046179ECEE3960FB6F894DEBF0FBECDBF97
:1010D000DF91CF911F910F91FF90EF90DF90CF9014
:1010E000BF90AF909F908F907F906F905F904F9048
:1010F0003F902F900895FC01538D448D252F30E0B3
:10110000842F90E0821B930B541710F0CF96089514
:1011100001970895FC01918D828D981761F0828D61
:10112000DF01A80FB11D5D968C91928D9F5F9F731B
:10113000928F90E008958FEF9FEF0895FC01918DBD
:10114000828D981731F0828DE80FF11D858D90E02A
:1011500008958FEF9FEF0895FC01918D228D892FC7
:1011600090E0805C9F4F821B91098F7399270895AF
:1011700087ED94E00E94AC0821E0892B09F420E07F
:10118000822F0895FC01848DDF01A80FB11DA35AA1
:10119000BF4F2C91848D90E001968F739927848F97
:1011A000A689B7892C93A089B1898C9180648C938E
:1011B000938D848D981306C00288F389E02D808179
:1011C0008F7D80830895EF92FF920F931F93CF93AB
:1011D000DF93EC0181E0888F9B8D8C8D981305C087
:1011E000E889F989808185FD24C0F62E0B8D10E0F9
:1011F0000F5F1F4F0F731127E02E8C8DE8120CC06C
:101200000FB607FCFACFE889F989808185FFF5CF11
:10121000CE010E94C208F1CF8B8DFE01E80FF11DB7
:10122000E35AFF4FF0820B8FEA89FB89808180624D
:1012300007C0EE89FF896083E889F989808180642D
:10124000808381E090E0DF91CF911F910F91FF901B
:10125000EF900895CF93DF93EC01888D8823C9F038
:10126000EA89FB89808185FD05C0A889B9898C91AF
:1012700086FD0FC00FB607FCF5CF808185FFF2CF4A
:10128000A889B9898C9185FFEDCFCE010E94C20853
:10129000E7CFDF91CF91089580E090E0892B29F08E
:1012A0000E94B80881110C94000008953FB7F8948B
:1012B0008091A0049091A104A091A204B091A304F4
:1012C00026B5A89B05C02F3F19F00196A11DB11DA1
:1012D0003FBFBA2FA92F982F8827820F911DA11DDC
:1012E000B11DBC01CD0142E0660F771F881F991F19
:1012F0004A95D1F7089585ED8093BC008091BC009C
:1013000084FDFCCF10927504089540914F04262F60
:1013100030E0240F311D21323105DCF420917504B9
:101320002430C9F4FC0180E090E0861758F4309135
:101330004F042191DC01A35DBB4FA30FB11D2C9382
:101340000196F3CF80914F04680F60934F0480E0C3
:10135000089581E0089582E0089508958FEF9FEF4A
:1013600008958FEF9FEF089580912C0490E0919560
:10137000819591090895CF93DF9300D0CDB7DEB763
:10138000CB01642F49835A830E9485094981842FA8
:101390005A81952F0F900F90DF91CF910895CF93A1
:1013A000DF931F92CDB7DEB7698361E0CE0101966E
:1013B0000E94850981E090E00F90DF91CF91089520
:1013C00008958EBD00000DB407FEFDCF8EB50895C3
:1013D0008CBD9DBD0895CF93DF93EC01898D9A8DCF
:1013E000892B41F0E881F9810284F385E02DCE015B
:1013F0000995F4CFDF91CF910895CF93DF931F929A
:10140000CDB7DEB76983DC01ED91FC910280F381F9
:10141000E02D41E050E0BE016F5F7F4F09950F90D6
:10142000DF91CF9108958F929F92AF92BF92CF920A
:10143000DF92EF92FF920F931F93CF93DF937C0184
:101440008B016C0182E0C80ED11C4701E5E08E0ED5
:10145000911CC0E0D0E0F60141916F0150E060E0E6
:1014600070E02AE0C8010E9495175C016EE2C80195
:101470000E9479178A0D9B1DC80FD91FC814D90463
:1014800051F7F701458150E060E070E02AE0C801C3
:101490000E9495178C0F9D1FDF91CF911F910F9187
:1014A000FF90EF90DF90CF90BF90AF909F908F9084
:1014B00008950E94B922CF93DF931F92CDB7DEB774
:1014C000FC01218D328D232B61F021E041E050E0C1
:1014D000BE016F5F7F4F84850E945012898190E02A
:1014E00002C08FEF9FEF0F90DF91CF910895AF92E1
:1014F000BF92CF92DF92FF920F931F93CF93DF9310
:101500008C015B01EA01FC01C788D08CF4848F2D2B
:101510000E94EF128C179D0720F48F2D0E94EF126E
:10152000EC019E01A501B6018F2D0E94AA12F801BF
:101530008789908D8C0F9D1F908F878BCE01DF91B7
:10154000CF911F910F91FF90DF90CF90BF90AF9000
:10155000089527E032E0FC0131832083FB014081C4
:10156000518162817381FC0142835383648375835B
:1015700008951F920F920FB60F9211242F933F934D
:101580004F935F936F937F938F939F93AF93BF938B
:10159000EF93FF9387ED94E00E94C208FF91EF91D3
:1015A000BF91AF919F918F917F916F915F914F917B
:1015B0003F912F910F900FBE0F901F9018951F9283
:1015C0000F920FB60F9211242F938F939F93EF9347
:1015D000FF93E091E704F091E8048081E091ED044D
:1015E000F091EE0482FD12C090818091F0048F5F33
:1015F0008F732091F104821751F0E091F004F0E034
:10160000E952FB4F958F8093F00401C08081FF91D8
:10161000EF919F918F912F910F900FBE0F901F9080
:10162000189590E0FC01ED57FF4F3491FC01E15417
:10163000FF4F2491FC01E555FF4FE491EE2309F49F
:101640003BC0332339F1333091F038F43130A9F015
:10165000323001F584B58F7D12C0373091F03830CB
:10166000A1F03430B9F4809180008F7D03C0809167
:1016700080008F77809380000DC084B58F7784BD04
:1016800009C08091B0008F7703C08091B0008F7D3A
:101690008093B000F0E0EE0FFF1FE956FF4FA591D9
:1016A000B4918FB7F894EC91611103C020952E236B
:1016B00001C02E2B2C938FBF089561E08091FA0317
:1016C0000C94110B60E08091FA030C94110B8F9233
:1016D0009F92AF92BF92CF92DF92EF92FF926B01F7
:1016E0007C010E9456094B015C01C114D104E10444
:1016F000F104F1F00E945609DC01CB018819990927
:10170000AA09BB09883E9340A105B10570F321E009
:10171000C21AD108E108F10888EE880E83E0981E0D
:10172000A11CB11CC114D104E104F10419F7DDCFEF
:10173000FF90EF90DF90CF90BF90AF909F908F90F1
:1017400008952FB7F89460919C0470919D04809146
:101750009E0490919F042FBF0895EF92FF920F93E4
:101760001F93CF93DF9300D0CDB7DEB77C018B0101
:1017700049835A830E94A10BF701E857FF4F60830A
:10178000718382839383D70114968D919C911597D1
:10179000DC01ED91FC910280F381E02D49815A81B9
:1017A000B8010F900F90DF91CF911F910F91FF9093
:1017B000EF9009941F93CF93DF93EC01162F0E94B3
:1017C000A10BFE01E857FF4F6083718382839383EF
:1017D0008C819D81DC01ED91FC910190F081E02DE7
:1017E000612FDF91CF911F9109941F920F920FB635
:1017F0000F9211242F933F938F939F93AF93BF9397
:1018000080919C0490919D04A0919E04B0919F04AE
:1018100030919B0423E0230F2D3720F40196A11D66
:10182000B11D05C026E8230F0296A11DB11D20930E
:101830009B0480939C0490939D04A0939E04B0937A
:101840009F048091A0049091A104A091A204B09162
:10185000A3040196A11DB11D8093A0049093A1043F
:10186000A093A204B093A304BF91AF919F918F91D5
:101870003F912F910F900FBE0F901F9018951F92C0
:101880000F920FB60F9211242F933F934F935F93B4
:101890006F937F938F939F93AF93BF93EF93FF9338
:1018A0008091B900887F803609F49CC068F5883241
:1018B00009F45BC090F4803109F454C038F48823F3
:1018C00009F4F6C0883009F44DC0F6C0883109F437
:1018D0004CC0803209F45DC0EFC0803409F468C0A8
:1018E00048F4803309F455C0883309F0E5C080938B
:1018F0007404D8C0803509F44FC0883509F45DC040
:10190000883409F0D9C0D6C0883909F4C7C0A8F412
:10191000883709F467C038F4883609F463C0803723
:1019200009F460C0C9C0883809F4B8C0803909F426
:101930005FC0803809F0C0C05BC0803B09F486C03E
:1019400038F4803A09F466C0883A09F47FC0B4C01C
:10195000803C09F4A7C0883C09F4A4C0883B09F482
:101960008AC0AAC080919A0410C090919904809175
:101970009804981770F5E091990481E08E0F809398
:101980009904F0E0E858FB4F80818093BB0085EC20
:1019900086C0809374048EC0E091990481E08E0F1C
:1019A000809399048091BB00F0E0E858FB4F80835E
:1019B00090919904809198046EC0E091990481E01F
:1019C0008E0F809399048091BB00F0E0E858FB4FA4
:1019D00080838091770481116DC081E080937604CB
:1019E00084EA61C083E08093750410927304CFCFC2
:1019F00080917304803208F051C0E091730481E05B
:101A00008E0F809373048091BB00F0E0ED5AFB4F82
:101A10008083BDCF85EC8093BC00109275048091CB
:101A20007304803230F4E0917304F0E0ED5AFB4F20
:101A300010826091730470E0E0915104F0915204BF
:101A400083E594E009951092730436C084E0809396
:101A500075041092500410924F04E0914D04F091DF
:101A60004E04099580914F04811105C081E0809357
:101A70004F0410922D04E091500481E08E0F80936A
:101A80005004F0E0E35DFB4F80818093BB009091B8
:101A9000500480914F04981708F479CF85E880931B
:101AA000BC000AC085EC8093BC001092750404C091
:101AB000109274040E947B09FF91EF91BF91AF9146
:101AC0009F918F917F916F915F914F913F912F9156
:101AD0000F900FBE0F901F901895CF92DF92EF924C
:101AE000FF920F931F93CF93DF9300D01F92CDB738
:101AF000DEB7F82EE92E89018091BC059091BD05D5
:101B00004A835B8369830E94E8090E94620B8E2DE1
:101B10000E94E1098F2D0E94E1096981862F0E94B0
:101B2000E1094A81C42E5B81D52E7601E00EF11EBB
:101B3000CE14DF0439F080E00E94E109F6018193C0
:101B40006F01F6CF0E945D0BC8010F900F900F90B0
:101B5000DF91CF911F910F91FF90EF90DF90CF9089
:101B600008950F931F93CF93DF931F92CDB7DEB7E6
:101B7000182F092F8091BC059091BD0569830E94A3
:101B8000E8090E94620B802F0E94E109812F0E94C8
:101B9000E1096981862F0E94E10980E00E94E10944
:101BA00089830E945D0B89810F90DF91CF911F91F6
:101BB0000F910895CF92DF92EF92FF920F931F93B0
:101BC000CF93DF9300D01F92CDB7DEB7F82EE92E6A
:101BD00089018091BC059091BD054A835B8369832F
:101BE0000E94E8090E94620B8E2D0E94E1098F2D50
:101BF0000E94E1096981862F0E94E1094A81C42E71
:101C00005B81D52E7601E00EF11ECE14DF0431F09B
:101C1000F60181916F010E94E109F7CF0E945D0BEF
:101C2000C8010F900F900F90DF91CF911F910F91EE
:101C3000FF90EF90DF90CF9008950F931F93CF9375
:101C4000DF9300D0CDB7DEB7182F092F8091BC05E8
:101C50009091BD054A8369830E94E8090E94620B46
:101C6000802F0E94E109812F0E94E1096981862F5E
:101C70000E94E1094A81842F0E94E1090E945D0BC4
:101C800081E00F900F90DF91CF911F910F910895F8
:101C90001F93CF93DF93182F66E270E00E94E31446
:101CA000C82FD0E0DC2FCC2767E270E0812F0E94A4
:101CB000E3149E01280F311DC901DF91CF911F91BF
:101CC00008951F93CF93DF93182F60E270E00E9476
:101CD000E314C82FD0E0DC2FCC2761E270E0812F25
:101CE0000E94E3149E01280F311DC901DF91CF919D
:101CF0001F910895CF92DF92EF92FF921F93CF939F
:101D0000DF9300D0CDB7DEB7182F7A0169837A83CD
:101D10000E948E126C0169817A810097A1F463E0C0
:101D200070E0812F0E94E3148431F1F08823E1F008
:101D300021E030E08C3111F420E030E0CC24DD24CF
:101D4000C21AD30A11C0E816F9060CF467011C1474
:101D50001D0454F420E0A601812F0E94501260E47B
:101D600070E0812F0E944012C6010F900F90DF910A
:101D7000CF911F91FF90EF90DF90CF900895CF9378
:101D8000DF93FC01218D328D2115310519F48FEF80
:101D90009FEF11C0EC014217530708F0A9018C8591
:101DA0000E947A0E1816190694F7298D3A8D281B71
:101DB000390B3A8F298FDF91CF9108950F931F939D
:101DC000CF93DF931F92CDB7DEB7FC01218D328D0B
:101DD000232B61F08C0141E050E0BE016F5F7F4F2B
:101DE00084850E947A0E181619061CF08FEF9FEF5B
:101DF00008C0F801818D928D0197928F818F898122
:101E000090E00F90DF91CF911F910F9108950F9364
:101E10001F93CF93DF93CDB7DEB728970FB6F89413
:101E2000DEBF0FBECDBF8C01DC01ED91FC910680C1
:101E3000F781E02D0995F80184850E948E12892B87
:101E400059F148E050E0BE016F5F7F4FD8011C960A
:101E50008C910E947A0E9C0118161906DCF4898177
:101E60009A81AB81BC81F801818B928BA38BB48B5F
:101E70008D8190E0982F88272E81820F911D968B5F
:101E8000858B2F8130E0322F22278885280F311D46
:101E9000328F218FC90102C080E090E028960FB6F2
:101EA000F894DEBF0FBECDBFDF91CF911F910F9190
:101EB00008959B018295880F807E6CE0680FC901B0
:101EC0000C941D0ECF93C82F60E170E00E94401269
:101ED0004FEF62E070E08C2FCF910C94590FCF92AE
:101EE000DF92EF92FF92CF93DF93EC010E94A10B60
:101EF0006B017C018091D5059091D605DC01ED91B7
:101F0000FC910084F185E02D0995892B79F40E94DC
:101F1000A10BAB01BC014C195D096E097F09483961
:101F20005A436105710530F380E00DC08091D505FD
:101F30009091D605DC01ED91FC910284F385E02DB2
:101F40000995888381E0DF91CF91FF90EF90DF903A
:101F5000CF900895E7EDF4E0A089B18982E08C93F9
:101F6000A485B5851C92A685B78580E18C93108EDB
:101F7000A489B58986E08C93A289B3898C9180610C
:101F80008C93A289B3898C9188608C93A289B38940
:101F90008C9180688C930288F389E02D80818F7DFD
:101FA000808308958091D5059091D605009759F1C9
:101FB000DC01ED91FC910688F789E02D09958111EE
:101FC00024C08091700690917106892BE1F48DEF09
:101FD0009FEF90937106809370068091D505909144
:101FE000D605DC01ED91FC910680F781E02D099585
:101FF0008091D5059091D605DC01ED91FC91048886
:10200000F589E02D099580E0089581E00895CF934A
:10201000DF93DC014E5F5F4FFC019F012A1B3B0BEE
:102020009191992339F0EB01C40FD51F98834F5F2D
:102030005F4FF3CFCA01821B930B680F791FFB011F
:102040003297308331962083CA01DF91CF91089572
:10205000CF92DF92EF92FF920F931F93CF93DF9374
:1020600000D000D0CDB7DEB7FA0130E09E2F9F77C9
:10207000EE0FEF2FEE1FFF0BF195309709F09068F0
:1020800021E0230FA1E0B0E0AC0FBD1FA30FB11DF5
:102090009C93309711F0322FE9CF30E0DB01A21B87
:1020A000B30B14968C93CE0101966C0180E090E006
:1020B0008217930764F4F60111916F017C01E21A13
:1020C000F30AE60EF71EF70115830196F1CF809112
:1020D000D5059091D6052F5F3F4F8901040F151F3D
:1020E000FC0120813181F90122813381A801BD01E8
:1020F000F90109957C010E94A10B60935906709328
:102100005A0680935B0690935C0681E0E016F10628
:1021100009F080E00F900F900F900F90DF91CF911A
:102120001F910F91FF90EF90DF90CF9008950F9344
:102130001F93CF93DF938C01E5EAF4E00190002038
:10214000E9F73197EF01C55AD4400E94D20F882396
:10215000A1F1F80101900020E9F73197E01BF10BA4
:10216000CE010796E80FF91FE138F10530F545E09B
:1021700050E067ED75E0C8010E940710A5EAB4E0E1
:1021800020E030E02C173D0751F04D91F901E80FA8
:10219000F91FEF52FA4F46832F5F3F4FF3CF255081
:1021A0003109A901480F591F67ED75E080E3DF9100
:1021B000CF911F910F910C94281080E0DF91CF9167
:1021C0001F910F910895CF93DF9361157105D1F0A1
:1021D000FC01248135812115310519F41092A504E3
:1021E00011C0EB0121972C173D0708F4E901FC0110
:1021F00060817181AE0185EA94E00E94ED22CB55A9
:10220000DB4F1882DF91CF9108955F926F927F929A
:102210008F929F92AF92BF92CF92DF92EF92FF92F6
:102220000F931F93CF93DF931F92CDB7DEB74C016F
:1022300087ED95E00E946F0F882309F441C07090EC
:10224000D705198201E010E0A12CB12CC12CD12CB2
:102250007601C394CE0101960E946F0F882381F10D
:102260000F5F1F4F8981F801EF52FA4F8583282FA6
:102270002F7730E02C9DA0012D9D500D3C9D500DE1
:102280001124A40EB51E37E0CC0CDD1CEE1CFF1C87
:102290003A95D1F787FF17C005301105D9F68FEFB2
:1022A0009FEF90937106809370068091D505909171
:1022B000D605DC01ED91FC910488F589E02D0995A6
:1022C00080E090E07CC0872D807F5524539480333C
:1022D00009F0512C8FEF800FF4018083552021F1FC
:1022E000C80189529A4F0E946F0F882349F3C80191
:1022F00088529A4F0E946F0F882311F30E5F1F4F71
:10230000D401EC91F0E0EF52FA4FE780F12CFE2C73
:10231000EE248085E80EF11C8091D70581FF08C06E
:10232000B2E0EB0EF11C04C080E0E12CF12C01C006
:1023300082E0C82ED12CC01AD10A9EEF692E7724D4
:102340007A94C601800F911F8A159B0568F5CE010E
:1023500001960E946F0F882309F4B2CF80916E0618
:1023600090916F060097A9F0552099F0F401208113
:10237000A301421B51099A01200F311FE216F306F7
:1023800040F4DC01ED91FC910190F081E02D698138
:1023900009950038110528F48981F801EF52FA4FA8
:1023A00086830F5F1F4FCDCF80916E0690916F0691
:1023B000892B21F40138110508F082CFC8010F9054
:1023C000DF91CF911F910F91FF90EF90DF90CF9011
:1023D000BF90AF909F908F907F906F905F90089587
:1023E000CF93DF93DC01ED91FC910190F081E02D22
:1023F00067ED74E00995EC0168EF72E087ED94E019
:102400000E9480178C0F9D1FDF91CF91089590E05F
:10241000FC01E154FF4F2491FC01E555FF4F8491ED
:10242000882399F090E0880F991FFC01EF55FF4F2A
:10243000A591B491FC01E956FF4F859194918FB716
:10244000F894EC91E22BEC938FBF0895FC0182810C
:102450009381A481B5818093660690936706A093CB
:102460006806B09369068BE597E090936D068093BC
:102470006C0610926B0610926A0681ED95E0089545
:10248000CF93C82F462F61E070E00E94590F61E0A2
:1024900070E08C2F0E94E3148111F9CFCF91089541
:1024A000CF92DF92EF92FF920F931F93CF93DF9320
:1024B000D82E7B018A01C22E68E270E00E94E314EC
:1024C000C82F69E270E08D2D0E94E314D0E0DC2F6C
:1024D000CC27C80FD11D6D2D6295660F607E685E9A
:1024E0009801A701CE010E946D0DC1100EC0C00F52
:1024F000D11F4D2F68E270E08D2D0E94590F4C2F97
:1025000069E270E08D2D0E94590FDF91CF911F91EC
:102510000F91FF90EF90DF90CF900895FF920F936F
:102520001F93CF93DF93F82EC0E0D0E08F2D0E9451
:10253000480E8C01892B21F08F2D0E94480EEC0152
:10254000C017D10799F7CE01DF91CF911F910F915D
:10255000FF900895CF92DF92EF92FF920F931F9317
:10256000CF93DF9300D0CDB7DEB7182F6B01790181
:1025700064E270E049835A830E94E314082F65E205
:1025800070E0812F0E94E314C80ED11CE02FF0E010
:10259000FE2FEE27CE0EDF1E612F6295660F607E46
:1025A0006C5E970149815A81C6010E94DA0DEC0CDC
:1025B000FD1C4F2D64E270E0812F0E94590F4E2DBB
:1025C00065E270E0812F0F900F90DF91CF911F9106
:1025D0000F91FF90EF90DF90CF900C94590FFF92E6
:1025E0000F931F93CF93DF93F82EC0E0D0E08F2D91
:1025F0000E94610E8C01892B21F08F2D0E94610EAB
:10260000EC01C017D10799F7CE01DF91CF911F914F
:102610000F91FF900895FC01818D928D0895FC012A
:1026200085899689089527E032E0FC013183208373
:10263000FB014189528963897489FC014283538378
:1026400064837583089580E00895FC019485FB01FF
:102650008485981303C081E0983009F480E00895E0
:1026600021E0FC018485883009F420E0822F089560
:102670000895CF93DF931F92CDB7DEB76983DC0156
:10268000ED91FC910280F381E02D41E050E0BE012C
:102690006F5F7F4F09950F90DF91CF910895DC0117
:1026A000ED91FC91028CF38DE02D099591E0892745
:1026B0000895089580E090E008950F931F93CF93BD
:1026C000FB018A01DC0158961C921E9257971C96BA
:1026D000CC918281811109C08381811106C08481DE
:1026E000811103C08581882301F101151105E9F0ED
:1026F000AF014E5F5F4F6C2F6295660F607E645F27
:1027000024E030E08CE090E00E94DA0D412F60E19F
:1027100070E08C2F0E94590F402F61E170E08C2FE8
:102720000E94590F81E090E002C080E090E0CF91DC
:102730001F910F910895CF92DF92EF92FF920F9326
:102740001F93CF93DF93CDB7DEB7AF970FB6F89453
:10275000DEBF0FBECDBF7C016A0107E012E01A8325
:1027600009831C861B8688EE93E0A0E0B0E08D878D
:102770009E87AF87B88B85E491E09A87898788E048
:102780008D8B198F088F1A8E1B8E1C8E1D8E1DA38C
:102790000CA31EA21FA218A619A68091C005909195
:1027A000C105A091C205B091C3058CA79DA7AEA796
:1027B000BFA78B839C83AD83BE8318861F82AE0127
:1027C0004C5D5F4FCE0101960E94E3008130910580
:1027D000B1F4D701ED91FC910488F589E02D1BA798
:1027E0000AA78EA19FA1A8A5B9A58CA79DA7AEA752
:1027F000BFA7A601BE01665D7F4FC7010995AF96D1
:102800000FB6F894DEBF0FBECDBFDF91CF911F9101
:102810000F91FF90EF90DF90CF900895CF92DF92CD
:10282000EF92FF920F931F93CF93DF93CDB7DEB755
:10283000AF970FB6F894DEBF0FBECDBF7C016A0123
:1028400007E012E01A8309831C861B8688EE93E05A
:10285000A0E0B0E08D879E87AF87B88B85E491E0DC
:102860009A87898788E08D8B198F088F1A8E1B8E27
:102870001C8E1D8E1DA30CA31EA21FA218A619A696
:102880008091C0059091C105A091C205B091C3058A
:102890008CA79DA7AEA7BFA78B839C83AD83BE8368
:1028A00018861F82AE014C5D5F4FCE0101960E94DB
:1028B000E30081309105B1F4D701ED91FC910684DC
:1028C000F785E02D1BA70AA78EA19FA1A8A5B9A5F2
:1028D0008CA79DA7AEA7BFA7A601BE01665D7F4FCF
:1028E000C7010995AF960FB6F894DEBF0FBECDBFF6
:1028F000DF91CF911F910F91FF90EF90DF90CF90DC
:102900000895CF93DF93EC018C85883061F00E94AD
:10291000620FEC85F0E0EE0FFF1FE353F94F1182D9
:10292000108288E08C87DF91CF9108950F931F93D9
:10293000CF93DF931F92CDB7DEB78C01DC01ED9111
:10294000FC910084F185E02D0995892B69F021E047
:1029500041E050E0BE016F5F7F4FF80184850E9427
:102960005012898190E002C08FEF9FEF0F90DF91AE
:10297000CF911F910F910895FC0184850C947A0EDC
:10298000CF93DF931F92CDB7DEB741E050E0BE0199
:102990006F5F7F4FFC0184850E947A0E181619061E
:1029A0001CF4898190E002C08FEF9FEF0F90DF91C0
:1029B000CF910895FC018485883011F00C948E121B
:1029C00080E090E008959B018295880F807E68E00A
:1029D000680FC9010C94B10DCF93FC01C48560E26E
:1029E00070E08C2F0E94401262E070E08C2F0E94F9
:1029F000E31484FD10C062E070E08C2F0E94E314A9
:102A000083FFF2CF48E162E070E08C2F0E94590F03
:102A100080E090E008C040E162E070E08C2F0E940E
:102A2000590F81E090E0CF910895FC0184858830B2
:102A300021F063E070E00C94E31480E00895CF93FC
:102A4000DF93FC0124852830D1F0EC010E9415159C
:102A5000843181F0882371F0883161F08C3161F428
:102A6000E881F9810084F185E02DCE01099521E00E
:102A7000892B19F420E001C021E0822F01C080E001
:102A8000DF91CF910895CF92DF92EF92FF92CF9393
:102A9000DF93EC018C85883099F168E070E00E944A
:102AA00040120E94A10B6B017C01CE010E94151502
:102AB0008823A1F00E94A10BDC01CB018C199D0998
:102AC000AE09BF09883E9340A105B10538F461E025
:102AD00070E080E090E00E94670BE7CFCE010E949B
:102AE0001515882319F08C850E94620FEC85F0E0A3
:102AF000EE0FFF1FE353F94F1182108288E08C879D
:102B0000DF91CF91FF90EF90DF90CF900895EF92FB
:102B1000FF921F93CF93DF93FC012485283011F09F
:102B200080E01DC07B01EC0110E063E070E0812FCC
:102B30000E94E314811102C01C8705C08831E1F3B3
:102B40001F5F183091F78C85883051F3FE86ED8633
:102B50001A8E198EA70162E00E94E51681E0DF91CE
:102B6000CF911F91FF90EF9008958F929F92AF9217
:102B7000BF92CF92DF92EF92FF920F931F93CF936A
:102B80006C015B017A01FC01C485C83041F481E02D
:102B900090E0F6019383828380E090E041C08A0157
:102BA0004130584010F000E018E08C2F0E94EF12E6
:102BB0004C0163E070E08C2F0E94E314873111F028
:102BC0008C3121F48016910680F302C000E010E001
:102BD0009801A50160E070E08C2F0E94AA1260E2CB
:102BE00070E08C2F0E94401262E070E08C2F0E94F7
:102BF000E31484FD0BC063E070E08C2F0E94E314AB
:102C00008111F2CF8C2F0E94620FC1CF40E162E0B0
:102C100070E08C2F0E94590F012B09F4B8CFC70127
:102C2000CF911F910F91FF90EF90DF90CF90BF90C9
:102C3000AF909F908F900895CF92DF92FF920F9365
:102C40001F93CF93DF938C01EB016A01FC01848514
:102C5000883009F07AC0F12C63E070E08F2D0E947B
:102C6000E314811103C0F801F48607C08B7F88311B
:102C7000D1F3F394F8E0FF12EFCFF80184858830A8
:102C800009F463C020910601309107012F5F3F4F87
:102C900011F420E034E030930701209306014091C5
:102CA00006015091070161E00E94E516F801F484E5
:102CB0008A818F3F51F48B818F3F91F48C818F3FBC
:102CC00079F48D818F3F61F43DC0811109C08B8102
:102CD000811106C08C81811103C08D81882391F1FF
:102CE000C114D10479F1AE014E5F5F4F6F2D629533
:102CF000660F607E645F24E030E08CE090E00E942C
:102D0000DA0D4D2D60E170E08F2D0E94590F4C2D92
:102D100061E170E08F2D0E94590F64E070E08F2D0B
:102D20000E944012C8010E941515873189F061E0A8
:102D300070E080E090E00E94670BC8010E941515CA
:102D40008111F0CF88E0F801848780E090E002C034
:102D500081E090E0DF91CF911F910F91FF90DF9084
:102D6000CF90089524E030E0AC0160E08FE090E087
:102D70000C946D0DCF92DF92EF92FF920F931F9301
:102D8000CF93DF936C017A018B01C0E0D0E0CE15C8
:102D9000DF0589F0D8016D918D01D601ED91FC918F
:102DA0000190F081E02DC6010995892B11F47E0177
:102DB00002C02196ECCFC701DF91CF911F910F91F7
:102DC000FF90EF90DF90CF900895FF920F931F93A5
:102DD000CF93DF931F92CDB7DEB7F82E8A016983B8
:102DE0000E94620F6981462F60E070E08F2D0E9483
:102DF000590F0115110551F40091DD061091DE0601
:102E00000F5F1F4F1093DE060093DD06412F64E035
:102E100070E08F2D0E94590F402F65E070E08F2DDC
:102E20000E94590F61E070E08F2D0E94401281E0F6
:102E30000F90DF91CF911F910F91FF9008950F9305
:102E40001F93CF93DF93EC0188819981009729F03C
:102E50002A813B812617370788F48B016F5F7F4FEC
:102E60000E94EF21009761F0998388831B830A8376
:102E70002C813D81232B11F4FC01108281E001C0E3
:102E800080E0DF91CF911F910F910895CF93DF9351
:102E9000EC0188819981009711F00E9457211982D5
:102EA00018821D821C821B821A82DF91CF910895A5
:102EB000EF92FF920F931F93CF93DF93EC017B016F
:102EC0008A01BA010E941F17811104C0CE010E941D
:102ED000461707C01D830C83B701888199810E9422
:102EE000E622CE01DF91CF911F910F91FF90EF90DD
:102EF0000895DC01ED91FC910190F081E02D0994A1
:102F00006115710579F0FB0101900020E9F7319717
:102F1000AF01461B570BDC01ED91FC910280F38160
:102F2000E02D099480E090E008954F925F926F92B7
:102F30007F92EF92FF920F931F93CF93DF93CDB7C2
:102F4000DEB7A1970FB6F894DEBF0FBECDBF7C01F0
:102F5000FA01CB0119A2223008F42AE08E010F5D9C
:102F60001F4F422E512C612C712CBF01A3019201E5
:102F70000E941B20F901CA01015011096A3014F4A2
:102F8000605D01C0695CD8016C93232B242B252B39
:102F900061F7B801C7010E948017A1960FB6F89497
:102FA000DEBF0FBECDBFDF91CF911F910F91FF907C
:102FB000EF907F906F905F904F9008950F931F93C5
:102FC000CF93DF93EC010E9480178C0168EF72E0D1
:102FD000CE010E948017800F911FDF91CF911F912A
:102FE0000F9108950C948017CF93DF93CDB7DEB780
:102FF000A5970FB6F894DEBF0FBECDBF789484B509
:10300000826084BD84B5816084BD85B5826085BDE4
:1030100085B5816085BD80916E00816080936E0072
:103020001092810080918100826080938100809164
:103030008100816080938100809180008160809315
:1030400080008091B10084608093B1008091B000D5
:1030500081608093B00080917A00846080937A00D0
:1030600080917A00826080937A0080917A008160FA
:1030700080937A0080917A00806880937A00109221
:10308000C1001092B8051092B9051092BA051092BD
:10309000BB05109276051092770510927805109274
:1030A00079050E94A10B6B017C014B015C0128EBAF
:1030B000820E2BE0921EA11CB11C0E94A10B6C156C
:1030C0007D058E059F0528F086169706A806B90689
:1030D000A0F787ED94E09093B7058093B6050E9422
:1030E000AA0F0E94A10B60937605709377058093D9
:1030F00078059093790569EE72E08091B60590911C
:10310000B7050E94F2170E94A10B6B017C014B01D5
:103110005C013AE0830E911CA11CB11C0E94A10B22
:103120006C157D058E059F0528F086169706A80666
:10313000B906A0F781E080938A050E94AA0F68EF84
:1031400072E087ED94E00E9480176BEF72E087EDEC
:1031500094E00E94DE1761E273E087ED94E00E9444
:10316000DE176BEF72E087ED94E00E94DE1708E651
:1031700010E0F801649161113BC0809105011F923C
:103180008F93809104011F928F93809103011F926E
:103190008F93809102011F928F93809101011F9262
:1031A0008F93809100011F928F938AE493E09F9305
:1031B0008F939E012F5F3F4F19013F932F930E94E2
:1031C000FC22B10187ED94E00E94DE1768E673E00F
:1031D00087ED94E00E94F2170FB6F894DEBF0FBEA1
:1031E000CDBF58EE452E53E0552E612C712C0DC1EC
:1031F000E091D704F091D8040190F081E02D87EDA3
:1032000094E009950F5F1F4F892B09F0B2CFB5CF1E
:1032100086E690E00E94C22026E6DC011D922A95F7
:10322000E9F7FC01E55BFF4F13821282448255826D
:103230006682778245E4C42E41E0D42ED182C082DA
:1032400028E024873F9627E032E0318320831282F2
:103250001382148215829093C9058093C80510913A
:10326000CA051093FA0368EE73E080E090E00E94D4
:10327000670B812F0E9407121FB7F8948091FB0300
:10328000882309F4CCC08091FB038F5F8093FB03FC
:103290001FBF60E080E090E00E94B10D482F4068C1
:1032A00064E080E090E00E941D0E10E0012F029586
:1032B000000F007E045F42E0602F8EE190E00E94EC
:1032C0001D0E42E0602F8FE190E00E941D0E1F5FF7
:1032D000183061F726E030E040E051E064E089E03A
:1032E00090E00E94DA0D87E092E09B8B8A8B1C8A2B
:1032F0001D8A1E8A1F8A24E030E0AE014C5E5F4FBB
:1033000064E08FE090E00E94DA0D0091C805109112
:10331000C905D80196961D921D921D921C929997EF
:10332000F80112A613A614A615A69E961D921D922C
:103330001D921C92D19712AE13AE14AE15AE980129
:10334000225C3F4F3CA32BA380E69AEEA0E0B0E0C6
:10335000F90180839183A283B3832C5F3F4F3AA30B
:1033600029A388E893E1A0E0B0E0F901808391838C
:10337000A283B383D801189686E0FD01C82E11926E
:10338000CA94E9F72453310994E1F90111929A950D
:10339000E9F7E0E0F1E001900D928A95E1F748014C
:1033A000FAE48F0E911CD4011C920E94DB1F2FECBB
:1033B00037E040E050E00E943D20DC01CB01019667
:1033C000A11DB11DF80184839583A683B7838083F3
:1033D0009183A283B3835801FBE4AF0EB11CC501F6
:1033E0000E94811464E470E0C5010E948715811178
:1033F0003BC06DE873E087ED94E00E94DE1768E85B
:1034000073E180E090E00E94670B8091C805909185
:10341000C905009709F4FCCE0E945721F9CEE5EBCF
:10342000F0E08491E9ECF0E09491E82FF0E0EE0F09
:10343000FF1FEF55FF4FA591B491EC919E2321F40E
:1034400061E08AE00E94110B8AE00E9407128CB5AD
:1034500080618CBD8CB580648CBD8DE00E940712AC
:103460008BE00E9407120FCF0E94A10B6B017C0121
:1034700018A21F8E1E8ED4018C91833009F400C1D6
:1034800081111FC0F80184819581A681B7810196C1
:10349000A11DB11D84839583A683B7830E94A10BD0
:1034A0006C197D098E099F09A30192010E941B20BE
:1034B000A90161E0C8010E94650581E0D4018C93F7
:1034C000BFC08430F9F4F80184819581A681B78169
:1034D0000196A11DB11D84839583A683B7830E94A5
:1034E000A10B6C197D098E099F09A30192010E940D
:1034F0001B20A90163E0C8010E946505E2E0D40138
:10350000EC939EC0813061F5A9A1BAA14D915D9166
:103510006D917C919E012E5E3F4FC8010E94650314
:103520008E8F823009F08CC08A899B89AC89BD89D5
:10353000F80184839583A683B7830E94A10B6C193D
:103540007D098E099F09A30192010E941B20A901F8
:1035500063E0C8010E946505EE8DD401EC9376C04E
:10356000823009F06DC0A9A1BAA14D915D916D9114
:103570007C919E012E5E3F4FC8010E9465038E8F95
:10358000853009F057C023E0F4012083F80186A1BB
:1035900097A1A0A5B1A5892B8A2B8B2B41F424E8F8
:1035A00033E040E050E026A337A340A751A7F8013D
:1035B00082A593A5A4A5B5A5892B8A2B8B2B61F495
:1035C00086A197A1A0A5B1A5B695A7959795879532
:1035D00082A793A7A4A7B5A7D8019E964D915D9108
:1035E0006D917C91D1979A968D919D910D90BC9102
:1035F000A02D452B462B472B59F4AC01BD01440FA0
:10360000551F661F771FF80146A757A760AB71AB20
:10361000F80182AB93ABA4ABB5AB86A597A5A0A9E7
:10362000B1A986AB97ABA0AFB1AF21E030E038A332
:103630002F8F0CC03E8D363019F4D4011C9206C079
:10364000BE8DBF3F19F4F40110821E8E2F8D38A15C
:103650002130310509F40FCF0E94A10BDC01CB0111
:103660008C199D09AE09BF09EBA1FCA12081318114
:1036700042815381281739074A075B0708F0FBCEC0
:10368000C5010E948114F80184819581A681B781CA
:103690000196A11DB11D84839583A683B7832F8DC9
:1036A00038A12130310509F063C06091C8057091DF
:1036B000C905625F7F4FCE0142960E94A90A24E0AD
:1036C00030E0AE014C5E5F4F64E08FE090E00E941E
:1036D000DA0D6091C8057091C905665E7F4FCE0115
:1036E00042960E94A90A24E030E0AE014C5E5F4F92
:1036F00064E081E090E00E94DA0D6091C80570916D
:10370000C9056A5E7F4FCE0142960E94A90A24E055
:1037100030E0AE014C5E5F4F64E085E090E00E94D7
:10372000DA0D6091C8057091C9056E5D7F4FCE01BD
:1037300042960E94A90A8C899D89AE89BF8980938F
:10374000C0059093C105A093C205B093C305E09155
:10375000C805F091C905828993899093C505809326
:10376000C405848995899093C7058093C60505C0D3
:10377000CF8CD8A0CD2809F43CCE66EC73E087ED61
:1037800094E00E94F21787E092E09B8B8A8B1C8A60
:103790001D8A1E8A1F8ACE0144960E94B216CE014F
:1037A00042960E94F0116BEF72E087ED94E00E9468
:1037B000DE1759E6E52E51E0F52E0CEF13E0D701A8
:1037C000DC90B2E0EB0EF11C8D2D0E940712F80187
:1037D00060818D2D0E94110BD8011D921D928D01CB
:1037E000B4E004321B0759F707E012E01B8B0A8B89
:1037F0008091740690917506A0917606B091770637
:103800008C8B9D8BAE8BBF8BCE0142960E94261275
:1038100081EB90E090936306809362061B8B0A8B8A
:103820001C8A1D8A1E8A1F8ACE0144960E94B216E7
:103830006C897D896C527C4F198E188E1B8E1A8E66
:103840001D8E1C8E6115710561F0FB010190002039
:10385000E9F73197AF01461B570BCE0148960E94FE
:1038600058176C8D7D8D6F5F7F4FCE0148960E94FB
:10387000E3108CE692E00E9497100E947306888DF8
:10388000998D0E9457210E94A10B672B682B692BF1
:1038900041F40E94A10B623071058105910508F485
:1038A00015C10E94A10B6093280470932904809392
:1038B0002A0490932B040091240410912504209154
:1038C000260430912704601771078207930740F49C
:1038D0006093240470932504809326049093270416
:1038E000009124041091250420912604309127048E
:1038F0006B017C01C01AD10AE20AF30A9701860122
:103900000A3F11052105310508F4E0C06093240445
:1039100070932504809326049093270424EF31E0CC
:1039200040E050E020938205309383054093840566
:103930005093850510928605109287051092880590
:103940001092890580917A0590917B05A0917C0564
:10395000B0917D0580937E0590937F05A0938005AF
:10396000B09381050E94A10B60937A0570937B054B
:1039700080937C0590937D050E94A10B6093760552
:103980007093770580937805909379050E94A10B39
:103990006B017C0166EE73E08091B6059091B705EE
:1039A0000E94F2172AE041E050E060E070E0809170
:1039B000B6059091B7050E9495176DEE73E0809162
:1039C000B6059091B7050E94F2172AE0B701A6014B
:1039D0008091B6059091B7050E9495176FEE73E040
:1039E0008091B6059091B7050E94F21780917A05F3
:1039F00090917B05A0917C05B0917D05B701A60152
:103A0000481B590B6A0B7B0B2AE08091B6059091FD
:103A1000B7050E9495176FEE73E08091B6059091FF
:103A2000B7050E94F21740917A0550917B0560918D
:103A30007C0570917D0580917E0590917F05A09118
:103A40008005B0918105481B590B6A0B7B0B2AE05E
:103A50008091B6059091B7050E94951761EF73E0CC
:103A60008091B6059091B7050E94F2170E94A10BB4
:103A7000AB01BC012AE08091B6059091B7050E9488
:103A8000951763EF73E08091B6059091B7050E949A
:103A9000DE170E94A10B4B015C016B017C0135E03C
:103AA000C30ED11CE11CF11C0E94A10B6815790505
:103AB0008A059B0508F034C10E94A10B60937A052A
:103AC00070937B0580937C0590937D050E94D20FB7
:103AD000811102C00E9473060E94D20F882309F44C
:103AE0001CC10E94A10B2B013C0180915D069091AD
:103AF0005E06A0915F06B091600673016201C81A6C
:103B0000D90AEA0AFB0A29E9C2162AE3D206E10425
:103B1000F104A8F48091590690915A06A0915B0691
:103B2000B0915C0673016201C81AD90AEA0AFB0A5D
:103B300029E9C2162AE3D206E104F104C8F1209172
:103B400061068091D5059091D605222371F04CEF46
:103B50005FEF5093710640937006DC01ED91FC918C
:103B60000488F589E02D0995D8C0B0ECB093D7054D
:103B70001092D805DC01ED91FC910280F381E02DDB
:103B800042E050E067ED75E0099540925906509289
:103B90005A0660925B0670925C0640925D065092F7
:103BA0005E0660925F0670926006B1E0B0936106B7
:103BB0008091D5059091D605DC01ED91FC910084B2
:103BC000F185E02D0995892B09F4A7C0C1010E9458
:103BD00005115C01892B09F49EC040925D0650924C
:103BE0005E0660925F06709260068091D705807FC6
:103BF000803309F074C08091620690916306892B2E
:103C000009F48BC0E980F12CF701EF52FA4F0781DC
:103C100010E0102F00278085080F111DF701E752D3
:103C2000FA4F6F01B70166527A4FA801CF010E9487
:103C3000D422B8016E0D7F1DFB01EF52FA4F1086A2
:103C40002091D7052670A0916206B09163062230BC
:103C5000C1F5818590E0982F882732854C01830E2D
:103C6000911C4BEF5FEF4E195F09401B510B4A0D42
:103C70005B1D64527A4FC6012DA3FD010995F0E446
:103C8000F093D7052DA12093D8059092D905809265
:103C9000DA058091D5059091D605DC01ED91FC9176
:103CA0000280F381E02D44E050E067ED75E0099576
:103CB0004092590650925A0660925B0670925C06DA
:103CC0002CC04DEF5FEF4E195F09401B510B4A0DA1
:103CD0005B1D66527A4FC601FD0109951EC0803CEE
:103CE000A9F4F0EDF093D7051092D8058091D50591
:103CF0009091D605DC01ED91FC910280F381E02DDD
:103D000042E050E067ED75E0099507C0803D29F479
:103D10001092610602C00E94D20F0E944C09B3CDDE
:103D2000C616D706E806F90608F0BECEC5CEE8E707
:103D3000F6E087E092E091838083128213821482FE
:103D40001582E7EDF4E01382128248EE53E060E062
:103D500070E0448355836683778327E931E03183BC
:103D6000208325EC30E03587248724EC30E037874A
:103D7000268720EC30E0318B208B21EC30E0338B38
:103D8000228B22EC30E0358B248B26EC30E0378B15
:103D9000268B118E128E138E148EE4E7F5E01682B8
:103DA000178210861186128613861486158616864B
:103DB0001786108A118A128A138A148A158AEEE7E6
:103DC000F6E013821282448355836683778329EA5F
:103DD00031E031832083EAE8F6E091838083128228
:103DE000138214821582ECEBF5E020E5208321E0BC
:103DF0002183E0E9F6E091838083128213821482AA
:103E00001582E6E9F6E091838083128213821482A0
:103E10001582ECE9F6E0918380831282138214828A
:103E20001582E2EAF6E09183808312821382148283
:103E30001582E8EAF6E0918380831282138214826D
:103E40001582EEEBF5E09183808312821382148257
:103E50001582138612863AE03487EBECF5E0918305
:103E600080831282138214821582EEEAF6E0918337
:103E700080831282138214821582E7ECF6E091832C
:103E800080831282138214821582E1ECF6E0918322
:103E90008083A0ECA28338EA33832483B3E2B58322
:103EA000E2E7F6E091838083A283338324832FE6C5
:103EB0002583E4EBF6E01382128244835583668304
:103EC000778325EE31E03183208328E02487A1ED3C
:103ED000B5E013961C921E9212972BEB31E01196CF
:103EE0003C932E9390936506809364061092660629
:103EF0001092670610926806109269068FEF9FEF86
:103F000090937106809370061596FC93EE93149728
:103F100010926F0610926E0608958F929F92AF9244
:103F2000BF92CF92DF92EF92FF92CF93DF93EC019B
:103F3000688179818A819B8161157105810591056F
:103F400021F464E279ED8BE597E02DE133EF41E078
:103F500050E00E943D2049015A019B01AC01A7EAB3
:103F6000B1E40E945C206B017C01ACEEB4EFA501D2
:103F700094010E946A20DC01CB018C0D9D1DAE1DB9
:103F8000BF1DB7FF03C00197A109B048888399837B
:103F9000AA83BB83BC01CD019F77DF91CF91FF90B6
:103FA000EF90DF90CF90BF90AF909F908F9008954B
:103FB0000E948D1F089588E091E00E948D1F089552
:103FC000609308017093090180930A0190930B019B
:103FD0000895BB27FA01A62F621771058105910587
:103FE000330B30FB66F0AA27660F771F881F991FD7
:103FF000AA1FA21710F0A21B63953850A9F7A05D65
:10400000AA3308F0A95DA19336F7B111B1931082DC
:10401000CA010C940B20DC01FC01672F71917723FE
:10402000E1F7329704C07C916D9370836291AE1773
:10403000BF07C8F30895A1E21A2EAA1BBB1BFD01FE
:104040000DC0AA1FBB1FEE1FFF1FA217B307E40777
:10405000F50720F0A21BB30BE40BF50B661F771FCF
:10406000881F991F1A9469F76095709580959095AF
:104070009B01AC01BD01CF010895052E97FB1EF4F5
:1040800000940E94542057FD07D00E941B2007FC7B
:1040900003D04EF40C9454205095409530952195C2
:1040A0003F4F4F4F5F4F0895909580957095619564
:1040B0007F4F8F4F9F4F08950E94A620A59F900D80
:1040C000B49F900DA49F800D911D11240895B7FFFA
:1040D0000C945C200E945C20821B930B08952F920D
:1040E0003F924F925F926F927F928F929F92AF9288
:1040F000BF92CF92DF92EF92FF920F931F93CF93D5
:10410000DF93CDB7DEB7CA1BDB0B0FB6F894DEBF6B
:104110000FBECDBF09942A88398848885F846E8491
:104120007D848C849B84AA84B984C884DF80EE80DB
:10413000FD800C811B81AA81B981CE0FD11D0FB6E4
:10414000F894DEBF0FBECDBFED010895A29FB00170
:10415000B39FC001A39F700D811D1124911DB29FBB
:10416000700D811D1124911D0895692796276927D7
:104170007827872778270895EE0FFF1F0590F49181
:10418000E02D0994CF93DF938230910510F482E003
:1041900090E0E091E106F091E20620E030E0C0E03E
:1041A000D0E0309711F14081518148175907C0F094
:1041B0004817590761F482819381209719F09B83F6
:1041C0008A832BC09093E2068093E10626C02115D6
:1041D000310519F04217530718F49A01BE01DF01A7
:1041E000EF010280F381E02DDCCF2115310509F1CB
:1041F000281B390B2430310590F412968D919C9137
:1042000013976115710521F0FB019383828304C02C
:104210009093E2068093E106FD01329644C0FD01D1
:10422000E20FF31F81939193225031092D933C9318
:104230003AC02091DF063091E006232B41F4209113
:104240000E0130910F013093E0062093DF0620919C
:104250000C0130910D012115310541F42DB73EB708
:104260004091100150911101241B350BE091DF06A4
:10427000F091E006E217F307A0F42E1B3F0B28177E
:10428000390778F0AC014E5F5F4F2417350748F0CF
:104290004E0F5F1F5093E0064093DF06819391938A
:1042A00002C0E0E0F0E0CF01DF91CF9108950F93DD
:1042B0001F93CF93DF93009709F48CC0FC013297D2
:1042C000138212820091E1061091E2060115110598
:1042D00081F420813181820F931F2091DF0630917C
:1042E000E0062817390779F5F093E006E093DF063A
:1042F00071C0D80140E050E0AE17BF0750F41296ED
:104300002D913C911397AD012115310509F1D9018A
:10431000F3CF9D01DA013383228360817181860F9F
:10432000971F8217930769F4EC0128813981260FC2
:10433000371F2E5F3F4F318320838A819B81938378
:104340008283452B29F4F093E206E093E10642C014
:104350001396FC93EE931297ED01499159919E01AA
:10436000240F351FE217F30771F480819181840FC8
:10437000951F029611969C938E938281938113963A
:104380009C938E931297E0E0F0E0D80112968D9105
:104390009C911397009719F0F8018C01F6CF8D913D
:1043A0009C9198012E5F3F4F820F931F2091DF0653
:1043B0003091E0062817390769F4309729F41092F4
:1043C000E2061092E10602C0138212821093E00608
:1043D0000093DF06DF91CF911F910F910895A0E028
:1043E000B0E0E5EFF1E20C947320EC01009721F4CA
:1043F000CB010E94C220B8C0FC01E60FF71F9C0150
:1044000022503109E217F30708F4ACC0D9010D912D
:104410001C91119706171707B0F00530110508F425
:104420009FC0C80104978617970708F499C00250E7
:104430001109061B170B019311936D937C93CF0108
:104440000E9457218DC05B01A01AB10A4C01800E59
:10445000911EA091E106B091E20640E050E0E12C0F
:10446000F12C109709F44AC0A815B905D1F56D9043
:104470007C901197630182E0C80ED11CCA14DB0442
:1044800080F1A3014A195B096A0182E0C80ED11CC0
:104490001296BC9012971396AC91B5E0CB16D1044E
:1044A00040F0B282A38351834083D9016D937C9302
:1044B0000AC00E5F1F4FC301800F911FF901918346
:1044C0008083EB2DFA2FE114F10431F0D70113961C
:1044D000FC93EE93129744C0F093E206E093E1065A
:1044E0003FC08D919C9111974817590708F4AC0172
:1044F0007D0112960D90BC91A02DB3CF8091DF0667
:104500009091E00688159905E1F446175707C8F41D
:1045100080910C0190910D01009741F48DB79EB7E9
:104520004091100150911101841B950BE817F90778
:10453000C8F4F093E006E093DF06F901718360832D
:104540000FC0CB010E94C2207C01009759F0A80146
:10455000BE010E94CB22CE010E945721C70104C098
:10456000CE0102C080E090E0CDB7DEB7EEE00C9463
:104570008F2081E090E0F8940C949D25FB01DC01F4
:1045800004C08D910190801921F441505040C8F72A
:10459000881B990B0895FB01DC0102C001900D926C
:1045A00041505040D8F708956817790768F4FB0127
:1045B000DC01E40FF51FA40FB51F02C002900E929C
:1045C00041505040D8F708950C94CB22FB01DC01F8
:1045D00001900D920020E1F70895FB01DC014150AC
:1045E000504048F001900D920020C9F701C01D9283
:1045F00041505040E0F70895AEE0B0E0E2E0F3E271
:104600000C947D200D891E8986E08C831A83098392
:104610008FEF9FE79E838D83AE01475E5F4F6F896B
:10462000788DCE0101960E941F232F813885F801D5
:10463000E20FF31F10822E96E4E00C949920ACE078
:10464000B0E0E5E2F3E20C946F207C016B018A019B
:10465000FC0117821682838181FFBDC1CE010196C4
:104660004C01F7019381F60193FD859193FF8191B0
:104670006F01882309F4ABC1853239F493FD85912C
:1046800093FF81916F01853229F4B70190E00E9478
:104690000725E7CF512C312C20E02032A0F48B32BB
:1046A00069F030F4803259F0833269F420612CC013
:1046B0008D3239F0803339F4216026C022602460C5
:1046C00023C0286021C027FD27C030ED380F3A30C5
:1046D00078F426FF06C0FAE05F9E300D1124532EB9
:1046E00013C08AE0389E300D1124332E20620CC096
:1046F0008E3221F426FD6BC1206406C08C3611F485
:10470000206802C0883641F4F60193FD859193FF3D
:1047100081916F018111C1CF982F9F7D9554933066
:1047200028F40C5F1F4FFFE3F9830DC0833631F08F
:10473000833771F0833509F05BC022C0F8018081B6
:1047400089830E5F1F4F44244394512C540115C09C
:104750003801F2E06F0E711CF801A080B18026FFD5
:1047600003C0652D70E002C06FEF7FEFC5012C879D
:104770000E94FC242C0183012C852F77222E17C048
:104780003801F2E06F0E711CF801A080B18026FFA5
:1047900003C0652D70E002C06FEF7FEFC5012C876D
:1047A0000E94F1242C012C852068222E830123FCF9
:1047B0001BC0832D90E048165906B0F4B70180E283
:1047C00090E00E9407253A94F4CFF50127FC8591EB
:1047D00027FE81915F01B70190E00E94072531100B
:1047E0003A94F1E04F1A51084114510471F7E5C0B1
:1047F000843611F0893639F5F80127FF07C060814A
:104800007181828193810C5F1F4F08C0608171812B
:10481000072E000C880B990B0E5F1F4F2F76722E00
:1048200097FF09C090958095709561957F4F8F4F48
:104830009F4F2068722E2AE030E0A4010E943F259D
:10484000A82EA81844C0853729F42F7EB22E2AE05E
:1048500030E025C0F22FF97FBF2E8F36C1F018F45B
:10486000883579F0B4C0803719F0883721F0AFC0AF
:104870002F2F2061B22EB4FE0DC08B2D8460B82E78
:1048800009C024FF0AC09F2F9660B92E06C028E0F9
:1048900030E005C020E130E002C020E132E0F80164
:1048A000B7FE07C060817181828193810C5F1F4FC9
:1048B00006C06081718180E090E00E5F1F4FA4010F
:1048C0000E943F25A82EA818FB2DFF777F2E76FE8D
:1048D0000BC0372D3E7FA51450F474FE0AC072FC45
:1048E00008C0372D3E7E05C0BA2C372D03C0BA2C28
:1048F00001C0B52C34FF0DC0FE01EA0DF11D808111
:10490000803311F4397E09C032FF06C0B394B394EA
:1049100004C0832F867809F0B39433FD13C030FFB1
:1049200006C05A2CB31418F4530C5B18B32CB314F0
:1049300068F4B70180E290E03C870E940725B394B9
:104940003C85F5CFB31410F43B1801C0312C34FF73
:1049500012C0B70180E390E03C870E9407253C85A8
:1049600032FF17C031FD03C088E790E002C088E540
:1049700090E0B7010CC0832F867859F031FF02C058
:104980008BE201C080E237FD8DE2B70190E00E942A
:104990000725A51438F4B70180E390E00E940725AD
:1049A0005A94F7CFAA94F401EA0DF11D8081B70162
:1049B00090E00E940725A110F5CF332009F451CED5
:1049C000B70180E290E00E9407253A94F6CFF70104
:1049D0008681978102C08FEF9FEF2C96E2E10C94C5
:1049E0008B20FC010590615070400110D8F7809534
:1049F00090958E0F9F1F0895FC01615070400190AB
:104A00000110D8F7809590958E0F9F1F08950F93F2
:104A10001F93CF93DF93FB01238121FD03C08FEF11
:104A20009FEF28C022FF16C046815781248135811F
:104A30004217530744F4A081B1819D012F5F3F4F7E
:104A4000318320838C93268137812F5F3F4F3783BB
:104A5000268310C0EB01092F182F0084F185E02D6B
:104A60000995892BE1F68E819F8101969F838E8324
:104A7000812F902FDF91CF911F910F910895FA010F
:104A8000AA27283051F1203181F1E8946F936E7F8D
:104A90006E5F7F4F8F4F9F4FAF4FB1E03ED0B4E07E
:104AA0003CD0670F781F891F9A1FA11D680F791FBF
:104AB0008A1F911DA11D6A0F711D811D911DA11DD0
:104AC00020D009F468943F912AE0269F11243019E0
:104AD000305D3193DEF6CF010895462F4770405D7B
:104AE0004193B3E00FD0C9F7F6CF462F4F70405D2A
:104AF0004A3318F0495D31FD4052419302D0A9F785
:104B0000EACFB4E0A6959795879577956795BA957E
:104B1000C9F700976105710508959B01AC010A2E44
:104B200006945795479537952795BA95C9F7620F1B
:0E4B3000731F841F951FA01D0895F894FFCFDA
:104B3E0000AABBCCDDEE0004010000000000E3067D
:104B4E00800000044D5154540400000000590A59CD
:104B5E000A5A13590A590A590A590A590A23135952
:104B6E000A590A590A590A590A590A590A590A591F
:104B7E000A00000000FD09770A5A13EB090B13DE39
:104B8E000E5B0A8715231381145D139B13EC140718
:104B9E000FBF0EAA0013130F130E000F00100011FB
:104BAE0000120013000000010002000300040005C3
:104BBE000006000700080009000A000B000C000D9B
:104BCE00006C0200000000E308BA167B082A09AC4C
:104BDE00088A089E0800000000CF09BB095A13ADD1
:104BEE0009B409B109AE0900000000DA0BAD0B5A89
:104BFE0013591300000000590ABA165A13591359C3
:104C0E000A590A590A00000000590ABA165A1359CD
:104C1E0013000000003913B5155A133813DA14C0F7
:104C2E001496141C160E14BC1443151F15301325A0
:104C3E00134F1300000000130A00000000590A4D24
:104C4E006573736167652061727269766564205B56
:104C5E00005D200057495A6E657400417474656D8D
:104C6E007074696E67204D51545420636F6E6E657B
:104C7E006374696F6E20746F203A20005265636F03
:104C8E006E6E656374696E672041726475696E6FCE
:104C9E002D00636F6E6E6563746564006576656E78
:104CAE007473006661696C65642C2072633D00202C
:104CBE0054696D65645F6F75740020494E56414CA2
:104CCE0049445F53455256455200205452554E4367
:104CDE00415445440020494E56414C49445F52458B
:104CEE0053504F4E53450020496D706F7373696278
:104CFE006C65204572726F72202E2E2E206C6F6C9A
:104D0E00002074727920616761696E20696E2035AA
:104D1E00207365636F6E647300564D4450565F3159
:104D2E007C315F564D4450560D0A003D3D3D3D3D94
:104D3E003D3D3D3D3D3D3D3D3D3D3D3D3D3D3D3D95
:104D4E003D3D3D3D3D3D3D3D3D3D3D3D3D3D3D3D85
:104D5E00005374617274696E67207570204F75749C
:104D6E00707574426F6172642052656C6179205760
:104D7E00353530302076312E3000253032583A25F8
:104D8E003032583A253032583A253032583A25309A
:104D9E0032583A25303258005573696E6720446890
:104DAE0063702C20416371756972696E672049507A
:104DBE002041646472657373202E2E2E004572722C
:104DCE006F7220747279696E6720746F20676574D4
:104DDE002064796E616D6963206970202E2E2E20FD
:104DEE007265747279696E6720696E2035207365FD
:104DFE00636F6E6473005573696E672044686370E9
:104E0E00203A20005374617274696E672041726497
:104E1E0075696E6F2D00564D4450455F003A323A1B
:0A4E2E00007C005F564D4450450023
:00000001FF
